{
  "_format": "hh-sol-artifact-1",
  "contractName": "HashStorage",
  "sourceName": "contracts/HashStorage.sol",
  "abi": [
    {
      "inputs": [],
      "stateMutability": "nonpayable",
      "type": "constructor"
    },
    {
      "inputs": [],
      "name": "AccessControlBadConfirmation",
      "type": "error"
    },
    {
      "inputs": [
        {
          "internalType": "address",
          "name": "account",
          "type": "address"
        },
        {
          "internalType": "bytes32",
          "name": "neededRole",
          "type": "bytes32"
        }
      ],
      "name": "AccessControlUnauthorizedAccount",
      "type": "error"
    },
    {
      "anonymous": false,
      "inputs": [
        {
          "indexed": true,
          "internalType": "address",
          "name": "user",
          "type": "address"
        },
        {
          "indexed": false,
          "internalType": "bytes32",
          "name": "hashValue",
          "type": "bytes32"
        }
      ],
      "name": "HashStored",
      "type": "event"
    },
    {
      "anonymous": false,
      "inputs": [
        {
          "indexed": true,
          "internalType": "bytes32",
          "name": "role",
          "type": "bytes32"
        },
        {
          "indexed": true,
          "internalType": "bytes32",
          "name": "previousAdminRole",
          "type": "bytes32"
        },
        {
          "indexed": true,
          "internalType": "bytes32",
          "name": "newAdminRole",
          "type": "bytes32"
        }
      ],
      "name": "RoleAdminChanged",
      "type": "event"
    },
    {
      "anonymous": false,
      "inputs": [
        {
          "indexed": true,
          "internalType": "bytes32",
          "name": "role",
          "type": "bytes32"
        },
        {
          "indexed": true,
          "internalType": "address",
          "name": "account",
          "type": "address"
        },
        {
          "indexed": true,
          "internalType": "address",
          "name": "sender",
          "type": "address"
        }
      ],
      "name": "RoleGranted",
      "type": "event"
    },
    {
      "anonymous": false,
      "inputs": [
        {
          "indexed": true,
          "internalType": "bytes32",
          "name": "role",
          "type": "bytes32"
        },
        {
          "indexed": true,
          "internalType": "address",
          "name": "account",
          "type": "address"
        },
        {
          "indexed": true,
          "internalType": "address",
          "name": "sender",
          "type": "address"
        }
      ],
      "name": "RoleRevoked",
      "type": "event"
    },
    {
      "inputs": [],
      "name": "COMPANY_ROLE",
      "outputs": [
        {
          "internalType": "bytes32",
          "name": "",
          "type": "bytes32"
        }
      ],
      "stateMutability": "view",
      "type": "function"
    },
    {
      "inputs": [],
      "name": "DEFAULT_ADMIN_ROLE",
      "outputs": [
        {
          "internalType": "bytes32",
          "name": "",
          "type": "bytes32"
        }
      ],
      "stateMutability": "view",
      "type": "function"
    },
    {
      "inputs": [],
      "name": "SCHOOL_ROLE",
      "outputs": [
        {
          "internalType": "bytes32",
          "name": "",
          "type": "bytes32"
        }
      ],
      "stateMutability": "view",
      "type": "function"
    },
    {
      "inputs": [],
      "name": "STUDENT_ROLE",
      "outputs": [
        {
          "internalType": "bytes32",
          "name": "",
          "type": "bytes32"
        }
      ],
      "stateMutability": "view",
      "type": "function"
    },
    {
      "inputs": [
        {
          "internalType": "address",
          "name": "user",
          "type": "address"
        }
      ],
      "name": "getHashes",
      "outputs": [
        {
          "internalType": "bytes32[]",
          "name": "",
          "type": "bytes32[]"
        }
      ],
      "stateMutability": "view",
      "type": "function"
    },
    {
      "inputs": [
        {
          "internalType": "bytes32",
          "name": "role",
          "type": "bytes32"
        }
      ],
      "name": "getRoleAdmin",
      "outputs": [
        {
          "internalType": "bytes32",
          "name": "",
          "type": "bytes32"
        }
      ],
      "stateMutability": "view",
      "type": "function"
    },
    {
      "inputs": [
        {
          "internalType": "bytes32",
          "name": "role",
          "type": "bytes32"
        },
        {
          "internalType": "address",
          "name": "account",
          "type": "address"
        }
      ],
      "name": "grantRole",
      "outputs": [],
      "stateMutability": "nonpayable",
      "type": "function"
    },
    {
      "inputs": [
        {
          "internalType": "bytes32",
          "name": "role",
          "type": "bytes32"
        },
        {
          "internalType": "address",
          "name": "account",
          "type": "address"
        }
      ],
      "name": "hasRole",
      "outputs": [
        {
          "internalType": "bool",
          "name": "",
          "type": "bool"
        }
      ],
      "stateMutability": "view",
      "type": "function"
    },
    {
      "inputs": [
        {
          "internalType": "bytes32",
          "name": "role",
          "type": "bytes32"
        },
        {
          "internalType": "address",
          "name": "callerConfirmation",
          "type": "address"
        }
      ],
      "name": "renounceRole",
      "outputs": [],
      "stateMutability": "nonpayable",
      "type": "function"
    },
    {
      "inputs": [
        {
          "internalType": "bytes32",
          "name": "role",
          "type": "bytes32"
        },
        {
          "internalType": "address",
          "name": "account",
          "type": "address"
        }
      ],
      "name": "revokeRole",
      "outputs": [],
      "stateMutability": "nonpayable",
      "type": "function"
    },
    {
      "inputs": [
        {
          "internalType": "bytes32",
          "name": "hashValue",
          "type": "bytes32"
        }
      ],
      "name": "storeHash",
      "outputs": [],
      "stateMutability": "nonpayable",
      "type": "function"
    },
    {
      "inputs": [
        {
          "internalType": "bytes4",
          "name": "interfaceId",
          "type": "bytes4"
        }
      ],
      "name": "supportsInterface",
      "outputs": [
        {
          "internalType": "bool",
          "name": "",
          "type": "bool"
        }
      ],
      "stateMutability": "view",
      "type": "function"
    }
  ],
  "bytecode": "0x6080604052346100405761001233610045565b5061001c336100c1565b506100263361017d565b5061003033610215565b506040516106e390816102ae8239f35b600080fd5b6001600160a01b03811660009081526000805160206109f1833981519152602052604090205460ff166100bb576001600160a01b031660008181526000805160206109f183398151915260205260408120805460ff191660011790553391906000805160206109918339815191528180a4600190565b50600090565b6001600160a01b03811660009081527f367a0034d391753fe6c9264898af6f14ce9baa3417708a6b9910903ee032526d602052604090205460ff166100bb576001600160a01b031660008181527f367a0034d391753fe6c9264898af6f14ce9baa3417708a6b9910903ee032526d60205260408120805460ff191660011790553391907f36a5c4aaacb6b388bbd448bf11096b7dafc5652bcc9046084fd0e95b1fb0b2cc906000805160206109918339815191529080a4600190565b6001600160a01b03811660009081526000805160206109d1833981519152602052604090205460ff166100bb576001600160a01b031660008181526000805160206109d183398151915260205260408120805460ff191660011790553391907fbf2d3c1ba72e79e259c756e56391a6a8f36a6ebdc23f41c00790ba276c7104e8906000805160206109918339815191529080a4600190565b6001600160a01b03811660009081526000805160206109b1833981519152602052604090205460ff166100bb576001600160a01b031660008181526000805160206109b183398151915260205260408120805460ff191660011790553391907f9e1688b53537f356172ce07f39e129155063957163c5f9462d4d9e55b228b06c906000805160206109918339815191529080a460019056fe608080604052600436101561001357600080fd5b60003560e01c90816301ffc9a7146104fc57508063193dd2ea1461036d5780631c9ee11a14610332578063248a9ca3146102fd5780632f2ff15d146102bd57806336568abe146102775780637fe88885146101ce57806391d1485414610181578063a217fddf14610165578063c94693071461012a578063d547741f146100e35763f7be43fb146100a357600080fd5b346100de5760003660031901126100de5760206040517f36a5c4aaacb6b388bbd448bf11096b7dafc5652bcc9046084fd0e95b1fb0b2cc8152f35b600080fd5b346100de5760403660031901126100de5761012860043561010261054f565b9061012361011e82600052600060205260016040600020015490565b610565565b61062b565b005b346100de5760003660031901126100de5760206040517fbf2d3c1ba72e79e259c756e56391a6a8f36a6ebdc23f41c00790ba276c7104e88152f35b346100de5760003660031901126100de57602060405160008152f35b346100de5760403660031901126100de5761019a61054f565b600435600052600060205260406000209060018060a01b0316600052602052602060ff604060002054166040519015158152f35b346100de5760203660031901126100de576004353360005260016020526040600020805468010000000000000000811015610261576001810180835581101561024b578291600052602060002001556040519081527f37f2073683f7b3e8558fd9805b052c089ebd1de4ddb0a26c2c78e310aa66cf5960203392a2005b634e487b7160e01b600052603260045260246000fd5b634e487b7160e01b600052604160045260246000fd5b346100de5760403660031901126100de5761029061054f565b336001600160a01b038216036102ac576101289060043561062b565b63334bd91960e11b60005260046000fd5b346100de5760403660031901126100de576101286004356102dc61054f565b906102f861011e82600052600060205260016040600020015490565b6105a0565b346100de5760203660031901126100de57602061032a600435600052600060205260016040600020015490565b604051908152f35b346100de5760003660031901126100de5760206040517f9e1688b53537f356172ce07f39e129155063957163c5f9462d4d9e55b228b06c8152f35b346100de5760203660031901126100de576004356001600160a01b038116908190036100de5780331480156104c4575b801561048c575b156104575760005260016020526040600020604051908160208254918281520190819260005260206000209060005b81811061044157505050829003601f01601f191682019167ffffffffffffffff83118184101761026157908291826040526020830190602084525180915260408301919060005b818110610428575050500390f35b825184528594506020938401939092019160010161041a565b82548452602090930192600192830192016103d3565b60405162461bcd60e51b815260206004820152600d60248201526c1858d8d95cdcc819195b9a5959609a1b6044820152606490fd5b503360009081527f8573e432f052127b18b2670f9ce48f3c6c9c93997e75a746c8799d91a4d36908602052604090205460ff166103a4565b503360009081527fb3fb76ef6aaa5e8c5c9dc52333f0724f74781d51c7015aa9b9f3724b69100701602052604090205460ff1661039d565b346100de5760203660031901126100de576004359063ffffffff60e01b82168092036100de57602091637965db0b60e01b811490811561053e575b5015158152f35b6301ffc9a760e01b14905083610537565b602435906001600160a01b03821682036100de57565b60008181526020818152604080832033845290915290205460ff16156105885750565b63e2517d3f60e01b6000523360045260245260446000fd5b6000818152602081815260408083206001600160a01b038616845290915290205460ff16610624576000818152602081815260408083206001600160a01b0395909516808452949091528120805460ff19166001179055339291907f2f8788117e7eff1d82e926ec794901d17c78024a50270940304540a733656f0d9080a4600190565b5050600090565b6000818152602081815260408083206001600160a01b038616845290915290205460ff1615610624576000818152602081815260408083206001600160a01b0395909516808452949091528120805460ff19169055339291907ff6391f5c32d9c69d2a47ea670b442974b53935d1edc7fd64eb21e047a839171b9080a460019056fea2646970667358221220ad9c0c5105b0605b1e3154125debc2dff824092bbf1b2818d87c1693b9b920d864736f6c634300081c00332f8788117e7eff1d82e926ec794901d17c78024a50270940304540a733656f0d8573e432f052127b18b2670f9ce48f3c6c9c93997e75a746c8799d91a4d36908b3fb76ef6aaa5e8c5c9dc52333f0724f74781d51c7015aa9b9f3724b69100701ad3228b676f7d3cd4284a5443f17f1962b36e491b30a40b2405849e597ba5fb5",
  "linkReferences": {},
  "deployedLinkReferences": {}
}