{
  "_format": "hh-sol-artifact-1",
  "contractName": "SkillWallet",
  "sourceName": "contracts/SkillWallet.sol",
  "abi": [
    {
      "inputs": [
        {
          "internalType": "address",
          "name": "_hashStorageAddress",
          "type": "address"
        }
      ],
      "stateMutability": "nonpayable",
      "type": "constructor"
    },
    {
      "inputs": [],
      "name": "AccessControlBadConfirmation",
      "type": "error"
    },
    {
      "inputs": [
        {
          "internalType": "address",
          "name": "account",
          "type": "address"
        },
        {
          "internalType": "bytes32",
          "name": "neededRole",
          "type": "bytes32"
        }
      ],
      "name": "AccessControlUnauthorizedAccount",
      "type": "error"
    },
    {
      "inputs": [
        {
          "internalType": "address",
          "name": "owner",
          "type": "address"
        }
      ],
      "name": "OwnableInvalidOwner",
      "type": "error"
    },
    {
      "inputs": [
        {
          "internalType": "address",
          "name": "account",
          "type": "address"
        }
      ],
      "name": "OwnableUnauthorizedAccount",
      "type": "error"
    },
    {
      "anonymous": false,
      "inputs": [
        {
          "indexed": true,
          "internalType": "string",
          "name": "courseId",
          "type": "string"
        }
      ],
      "name": "CourseAdded",
      "type": "event"
    },
    {
      "anonymous": false,
      "inputs": [
        {
          "indexed": true,
          "internalType": "string",
          "name": "jobId",
          "type": "string"
        }
      ],
      "name": "JobAdded",
      "type": "event"
    },
    {
      "anonymous": false,
      "inputs": [
        {
          "indexed": true,
          "internalType": "string",
          "name": "majorId",
          "type": "string"
        }
      ],
      "name": "MajorAdded",
      "type": "event"
    },
    {
      "anonymous": false,
      "inputs": [
        {
          "indexed": true,
          "internalType": "address",
          "name": "previousOwner",
          "type": "address"
        },
        {
          "indexed": true,
          "internalType": "address",
          "name": "newOwner",
          "type": "address"
        }
      ],
      "name": "OwnershipTransferred",
      "type": "event"
    },
    {
      "anonymous": false,
      "inputs": [
        {
          "indexed": true,
          "internalType": "bytes32",
          "name": "role",
          "type": "bytes32"
        },
        {
          "indexed": true,
          "internalType": "bytes32",
          "name": "previousAdminRole",
          "type": "bytes32"
        },
        {
          "indexed": true,
          "internalType": "bytes32",
          "name": "newAdminRole",
          "type": "bytes32"
        }
      ],
      "name": "RoleAdminChanged",
      "type": "event"
    },
    {
      "anonymous": false,
      "inputs": [
        {
          "indexed": true,
          "internalType": "bytes32",
          "name": "role",
          "type": "bytes32"
        },
        {
          "indexed": true,
          "internalType": "address",
          "name": "account",
          "type": "address"
        },
        {
          "indexed": true,
          "internalType": "address",
          "name": "sender",
          "type": "address"
        }
      ],
      "name": "RoleGranted",
      "type": "event"
    },
    {
      "anonymous": false,
      "inputs": [
        {
          "indexed": true,
          "internalType": "bytes32",
          "name": "role",
          "type": "bytes32"
        },
        {
          "indexed": true,
          "internalType": "address",
          "name": "account",
          "type": "address"
        },
        {
          "indexed": true,
          "internalType": "address",
          "name": "sender",
          "type": "address"
        }
      ],
      "name": "RoleRevoked",
      "type": "event"
    },
    {
      "anonymous": false,
      "inputs": [
        {
          "indexed": true,
          "internalType": "string",
          "name": "schoolId",
          "type": "string"
        }
      ],
      "name": "SchoolAdded",
      "type": "event"
    },
    {
      "anonymous": false,
      "inputs": [
        {
          "indexed": true,
          "internalType": "string",
          "name": "skillHashKey",
          "type": "string"
        }
      ],
      "name": "SkillRecorded",
      "type": "event"
    },
    {
      "anonymous": false,
      "inputs": [
        {
          "indexed": true,
          "internalType": "address",
          "name": "wallet",
          "type": "address"
        },
        {
          "indexed": false,
          "internalType": "bytes32",
          "name": "dataHash",
          "type": "bytes32"
        }
      ],
      "name": "UserRegistered",
      "type": "event"
    },
    {
      "inputs": [],
      "name": "ADMIN_ROLE",
      "outputs": [
        {
          "internalType": "bytes32",
          "name": "",
          "type": "bytes32"
        }
      ],
      "stateMutability": "view",
      "type": "function"
    },
    {
      "inputs": [],
      "name": "DEFAULT_ADMIN_ROLE",
      "outputs": [
        {
          "internalType": "bytes32",
          "name": "",
          "type": "bytes32"
        }
      ],
      "stateMutability": "view",
      "type": "function"
    },
    {
      "inputs": [
        {
          "internalType": "string",
          "name": "courseId",
          "type": "string"
        },
        {
          "internalType": "string",
          "name": "courseCode",
          "type": "string"
        },
        {
          "internalType": "string",
          "name": "courseTitle",
          "type": "string"
        },
        {
          "internalType": "string",
          "name": "schoolId",
          "type": "string"
        }
      ],
      "name": "addCourse",
      "outputs": [],
      "stateMutability": "nonpayable",
      "type": "function"
    },
    {
      "inputs": [
        {
          "internalType": "string",
          "name": "jobId",
          "type": "string"
        },
        {
          "internalType": "string",
          "name": "title",
          "type": "string"
        },
        {
          "internalType": "string",
          "name": "description",
          "type": "string"
        },
        {
          "internalType": "string",
          "name": "companyId",
          "type": "string"
        }
      ],
      "name": "addJob",
      "outputs": [],
      "stateMutability": "nonpayable",
      "type": "function"
    },
    {
      "inputs": [
        {
          "internalType": "string",
          "name": "majorId",
          "type": "string"
        },
        {
          "internalType": "string",
          "name": "name",
          "type": "string"
        },
        {
          "internalType": "string",
          "name": "schoolId",
          "type": "string"
        }
      ],
      "name": "addMajor",
      "outputs": [],
      "stateMutability": "nonpayable",
      "type": "function"
    },
    {
      "inputs": [
        {
          "internalType": "string",
          "name": "schoolId",
          "type": "string"
        },
        {
          "internalType": "string",
          "name": "name",
          "type": "string"
        }
      ],
      "name": "addSchool",
      "outputs": [],
      "stateMutability": "nonpayable",
      "type": "function"
    },
    {
      "inputs": [
        {
          "internalType": "string",
          "name": "",
          "type": "string"
        }
      ],
      "name": "courses",
      "outputs": [
        {
          "internalType": "string",
          "name": "courseId",
          "type": "string"
        },
        {
          "internalType": "string",
          "name": "courseCode",
          "type": "string"
        },
        {
          "internalType": "string",
          "name": "courseTitle",
          "type": "string"
        },
        {
          "internalType": "uint256",
          "name": "createdAt",
          "type": "uint256"
        },
        {
          "internalType": "string",
          "name": "schoolId",
          "type": "string"
        }
      ],
      "stateMutability": "view",
      "type": "function"
    },
    {
      "inputs": [
        {
          "internalType": "bytes32",
          "name": "role",
          "type": "bytes32"
        }
      ],
      "name": "getRoleAdmin",
      "outputs": [
        {
          "internalType": "bytes32",
          "name": "",
          "type": "bytes32"
        }
      ],
      "stateMutability": "view",
      "type": "function"
    },
    {
      "inputs": [
        {
          "internalType": "bytes32",
          "name": "role",
          "type": "bytes32"
        },
        {
          "internalType": "address",
          "name": "account",
          "type": "address"
        }
      ],
      "name": "grantRole",
      "outputs": [],
      "stateMutability": "nonpayable",
      "type": "function"
    },
    {
      "inputs": [
        {
          "internalType": "bytes32",
          "name": "role",
          "type": "bytes32"
        },
        {
          "internalType": "address",
          "name": "account",
          "type": "address"
        }
      ],
      "name": "hasRole",
      "outputs": [
        {
          "internalType": "bool",
          "name": "",
          "type": "bool"
        }
      ],
      "stateMutability": "view",
      "type": "function"
    },
    {
      "inputs": [],
      "name": "hashStorage",
      "outputs": [
        {
          "internalType": "contract IHashStorage",
          "name": "",
          "type": "address"
        }
      ],
      "stateMutability": "view",
      "type": "function"
    },
    {
      "inputs": [
        {
          "internalType": "string",
          "name": "",
          "type": "string"
        }
      ],
      "name": "jobs",
      "outputs": [
        {
          "internalType": "string",
          "name": "jobId",
          "type": "string"
        },
        {
          "internalType": "string",
          "name": "title",
          "type": "string"
        },
        {
          "internalType": "string",
          "name": "description",
          "type": "string"
        },
        {
          "internalType": "uint256",
          "name": "createdAt",
          "type": "uint256"
        },
        {
          "internalType": "string",
          "name": "companyId",
          "type": "string"
        }
      ],
      "stateMutability": "view",
      "type": "function"
    },
    {
      "inputs": [
        {
          "internalType": "string",
          "name": "",
          "type": "string"
        }
      ],
      "name": "majors",
      "outputs": [
        {
          "internalType": "string",
          "name": "majorId",
          "type": "string"
        },
        {
          "internalType": "string",
          "name": "name",
          "type": "string"
        },
        {
          "internalType": "string",
          "name": "schoolId",
          "type": "string"
        }
      ],
      "stateMutability": "view",
      "type": "function"
    },
    {
      "inputs": [],
      "name": "owner",
      "outputs": [
        {
          "internalType": "address",
          "name": "",
          "type": "address"
        }
      ],
      "stateMutability": "view",
      "type": "function"
    },
    {
      "inputs": [
        {
          "internalType": "string",
          "name": "courseId",
          "type": "string"
        },
        {
          "internalType": "string",
          "name": "ownerId",
          "type": "string"
        },
        {
          "internalType": "string",
          "name": "description",
          "type": "string"
        },
        {
          "internalType": "string",
          "name": "level",
          "type": "string"
        },
        {
          "internalType": "string",
          "name": "schoolId",
          "type": "string"
        },
        {
          "internalType": "string",
          "name": "title",
          "type": "string"
        },
        {
          "internalType": "string",
          "name": "status",
          "type": "string"
        }
      ],
      "name": "recordSkill",
      "outputs": [],
      "stateMutability": "nonpayable",
      "type": "function"
    },
    {
      "inputs": [
        {
          "internalType": "string",
          "name": "customUid",
          "type": "string"
        },
        {
          "internalType": "string",
          "name": "email",
          "type": "string"
        },
        {
          "internalType": "string",
          "name": "name",
          "type": "string"
        },
        {
          "internalType": "string",
          "name": "role",
          "type": "string"
        },
        {
          "internalType": "string",
          "name": "schoolId",
          "type": "string"
        },
        {
          "internalType": "address",
          "name": "walletAddress",
          "type": "address"
        }
      ],
      "name": "registerUser",
      "outputs": [],
      "stateMutability": "nonpayable",
      "type": "function"
    },
    {
      "inputs": [],
      "name": "renounceOwnership",
      "outputs": [],
      "stateMutability": "nonpayable",
      "type": "function"
    },
    {
      "inputs": [
        {
          "internalType": "bytes32",
          "name": "role",
          "type": "bytes32"
        },
        {
          "internalType": "address",
          "name": "callerConfirmation",
          "type": "address"
        }
      ],
      "name": "renounceRole",
      "outputs": [],
      "stateMutability": "nonpayable",
      "type": "function"
    },
    {
      "inputs": [
        {
          "internalType": "bytes32",
          "name": "role",
          "type": "bytes32"
        },
        {
          "internalType": "address",
          "name": "account",
          "type": "address"
        }
      ],
      "name": "revokeRole",
      "outputs": [],
      "stateMutability": "nonpayable",
      "type": "function"
    },
    {
      "inputs": [
        {
          "internalType": "string",
          "name": "",
          "type": "string"
        }
      ],
      "name": "schools",
      "outputs": [
        {
          "internalType": "string",
          "name": "schoolId",
          "type": "string"
        },
        {
          "internalType": "string",
          "name": "name",
          "type": "string"
        }
      ],
      "stateMutability": "view",
      "type": "function"
    },
    {
      "inputs": [
        {
          "internalType": "string",
          "name": "",
          "type": "string"
        }
      ],
      "name": "skills",
      "outputs": [
        {
          "internalType": "string",
          "name": "skillHashKey",
          "type": "string"
        },
        {
          "internalType": "string",
          "name": "courseId",
          "type": "string"
        },
        {
          "internalType": "string",
          "name": "ownerId",
          "type": "string"
        },
        {
          "internalType": "string",
          "name": "description",
          "type": "string"
        },
        {
          "internalType": "string",
          "name": "level",
          "type": "string"
        },
        {
          "internalType": "uint256",
          "name": "createdAt",
          "type": "uint256"
        },
        {
          "internalType": "string",
          "name": "reviewedBy",
          "type": "string"
        },
        {
          "internalType": "uint256",
          "name": "reviewedAt",
          "type": "uint256"
        },
        {
          "internalType": "string",
          "name": "schoolId",
          "type": "string"
        },
        {
          "internalType": "string",
          "name": "title",
          "type": "string"
        },
        {
          "internalType": "string",
          "name": "status",
          "type": "string"
        }
      ],
      "stateMutability": "view",
      "type": "function"
    },
    {
      "inputs": [
        {
          "internalType": "bytes4",
          "name": "interfaceId",
          "type": "bytes4"
        }
      ],
      "name": "supportsInterface",
      "outputs": [
        {
          "internalType": "bool",
          "name": "",
          "type": "bool"
        }
      ],
      "stateMutability": "view",
      "type": "function"
    },
    {
      "inputs": [
        {
          "internalType": "address",
          "name": "newOwner",
          "type": "address"
        }
      ],
      "name": "transferOwnership",
      "outputs": [],
      "stateMutability": "nonpayable",
      "type": "function"
    },
    {
      "inputs": [
        {
          "internalType": "address",
          "name": "",
          "type": "address"
        }
      ],
      "name": "users",
      "outputs": [
        {
          "internalType": "uint256",
          "name": "createdAt",
          "type": "uint256"
        },
        {
          "internalType": "string",
          "name": "customUid",
          "type": "string"
        },
        {
          "internalType": "string",
          "name": "email",
          "type": "string"
        },
        {
          "internalType": "string",
          "name": "name",
          "type": "string"
        },
        {
          "internalType": "string",
          "name": "role",
          "type": "string"
        },
        {
          "internalType": "string",
          "name": "schoolId",
          "type": "string"
        },
        {
          "internalType": "address",
          "name": "walletAddress",
          "type": "address"
        },
        {
          "internalType": "bytes32",
          "name": "dataHash",
          "type": "bytes32"
        }
      ],
      "stateMutability": "view",
      "type": "function"
    }
  ],
  "bytecode": "0x6080346100e757601f61379e38819003918201601f19168301916001600160401b038311848410176100ec578084926020946040528339810103126100e757516001600160a01b038116908190036100e75733156100d15760018054336001600160a01b0319821681179092556001600160a01b03167f8be0079c531659141344cd1fd0a4f28419497f9722a3daafe3b4186f6b6457e0600080a36100a333610102565b506100ad3361017e565b50600280546001600160a01b03191691909117905560405161352790816102178239f35b631e4fbdf760e01b600052600060045260246000fd5b600080fd5b634e487b7160e01b600052604160045260246000fd5b6001600160a01b038116600090815260008051602061377e833981519152602052604090205460ff16610178576001600160a01b0316600081815260008051602061377e83398151915260205260408120805460ff1916600117905533919060008051602061373e8339815191528180a4600190565b50600090565b6001600160a01b038116600090815260008051602061375e833981519152602052604090205460ff16610178576001600160a01b0316600081815260008051602061375e83398151915260205260408120805460ff191660011790553391907fa49807205ce4d355092ef5a8a18f56e8913cf4a201fbe287825b095693c217759060008051602061373e8339815191529080a460019056fe61026080604052600436101561001457600080fd5b600061020052610200513560e01c90816301ffc9a714612b0b57508063248a9ca314612ad65780632cf93bc114611b645780632f2ff15d14611b2457806332247e33146117a457806336568abe1461175a578063384f2c62146117075780635d1c6dce146116e157806363acb66f146116b65780636f0d7116146115c0578063715018a61461155a57806375b238fc1461151d5780637aef7cf1146113f6578063847729c91461137d5780638d26bbe3146112215780638da5cb5b146111f657806391d14854146111a3578063a217fddf14611183578063a87430ba1461108a578063b05e6f5a14611012578063cf31c4e41461071d578063d547741f146106d0578063d73b4b9e146101d25763f2fde38b1461013057600080fd5b346101cb5760203660031901126101cb57610149612ba6565b6101516134c8565b6001600160a01b031680156101af57600180546001600160a01b031981168317909155610200516001600160a01b03909116907f8be0079c531659141344cd1fd0a4f28419497f9722a3daafe3b4186f6b6457e09080a36102005180f35b631e4fbdf760e01b610200515261020051600452602461020051fd5b6102005180fd5b346101cb5760603660031901126101cb576004356001600160401b0381116101cb57610202903690600401612b5e565b6024356001600160401b0381116101cb57610221903690600401612b5e565b92906044356001600160401b0381116101cb57610242903690600401612b5e565b949061024c61330e565b61026a60405186868237602081888101600681520301902054612cb5565b61069c576040519260608401908482106001600160401b038311176104eb576102b7936102a89260405261029f368989612c0e565b86523691612c0e565b95602084019687523691612c0e565b936040820194855260405184848237602081868101600681520301902091518051906001600160401b0382116104eb5781906102f38554612cb5565b601f8111610643575b506020906001601f8411146105da5761020051926105cf575b50508160011b916000199060031b1c19161782555b51805160018301916001600160401b0382116104eb5761034a8354612cb5565b601f8111610581575b506020906001601f8411146105105791809160029594936102005192610505575b50508160011b916000199060031b1c19161790555b0192519283516001600160401b0381116104eb576103a78254612cb5565b601f811161049d575b506020946001601f831114610432579481929394956102005192610427575b50508160011b916000199060031b1c19161790555b8160405192839283378101600081520390207fbe01dd4dcd5183c46196b490533290a5303a28ecf62da9d21cd2a586c7501e776102005161020051a26102005180f35b0151905085806103cf565b601f1982169583610200515280610200512091610200515b8881106104855750836001959697981061046c575b505050811b0190556103e4565b015160001960f88460031b161c1916905585808061045f565b9192602060018192868501518155019401920161044a565b82610200515260206102005120601f830160051c810191602084106104e1575b601f0160051c01905b8181106104d357506103b0565b6102005181556001016104c6565b90915081906104bd565b634e487b7160e01b61020051526041600452602461020051fd5b015190508880610374565b90601f1983169184610200515281610200512092610200515b818110610569575091600193918560029897969410610550575b505050811b019055610389565b015160001960f88460031b161c19169055888080610543565b92936020600181928786015181550195019301610529565b83610200515260206102005120601f840160051c810191602085106105c5575b601f0160051c01905b8181106105b75750610353565b6102005181556001016105aa565b90915081906105a1565b015190508780610315565b6102008051879052518281209350601f198516905b81811061062b5750908460019594939210610612575b505050811b01825561032a565b015160001960f88460031b161c19169055878080610605565b929360206001819287860151815501950193016105ef565b90915084610200515260206102005120601f840160051c81019160208510610692575b90601f859493920160051c01905b81811061068157506102fc565b610200518155849350600101610674565b9091508190610666565b60405162461bcd60e51b815260206004820152600c60248201526b4d616a6f722065786973747360a01b6044820152606490fd5b346101cb5760403660031901126101cb576107156004356106ef612b90565b9061071061070b82600052600060205260016040600020015490565b613380565b613446565b506102005180f35b346101cb5760c03660031901126101cb576004356001600160401b0381116101cb5761074d903690600401612b5e565b906024356001600160401b0381116101cb5761076d903690600401612b5e565b92906044356001600160401b0381116101cb5761078e903690600401612b5e565b90926064356001600160401b0381116101cb576107af903690600401612b5e565b9190966084356001600160401b0381116101cb576107d1903690600401612b5e565b60a4356001600160a01b0381169a919491908b81036101cb578b610200515260036020526040610200512054610fdf578a839187898b8e818f8c90604051998a994260208c015260408b0137818c8a01916040830161020051815237016040019161020051835282370161020051815281878237016102005181528188823701906bffffffffffffffffffffffff199060601b16815203600b198101825260140161087c9082612bed565b8051602090910120600254909a906001600160a01b0316803b156101cb5760405190637fe8888560e01b82528c600483015281602481610200519361020051905af18015610fd157610fb6575b50604051996101008b01918b83106001600160401b038411176104eb578b9a61094597602061090c610918948f996109369a610927996040524290523691612c0e565b9d019c8d523691612c0e565b9860408c01998a523691612c0e565b9560608a019687523691612c0e565b92608088019384523691612c0e565b9160a0860192835260c086019388855260e0870195888752896102005152600360205260406102005120975188556001880190518051906001600160401b0382116104eb5781906109968454612cb5565b601f8111610f5d575b506020906001601f841114610ef4576102005192610ee9575b50508160011b916000199060031b1c19161790555b51805160028801916001600160401b0382116104eb5781906109ef8454612cb5565b601f8111610e90575b506020906001601f841114610e27576102005192610e1c575b50508160011b916000199060031b1c19161790555b51805160038701916001600160401b0382116104eb578190610a488454612cb5565b601f8111610dc3575b506020906001601f841114610d5a576102005192610d4f575b50508160011b916000199060031b1c19161790555b51805160048601916001600160401b0382116104eb578190610aa18454612cb5565b601f8111610cf6575b506020906001601f841114610c8d576102005192610c82575b50508160011b916000199060031b1c19161790555b51805160058501916001600160401b0382116104eb57610af88354612cb5565b601f8111610c34575b506020906001601f841114610b9d5792827f4c5d15f5779ae1ecd7d55bd3283d898e29c35743d172bd7b83a16e17bc0afe2a98969360209896936007966102005192610b92575b50508160011b916000199060031b1c19161790555b516006840180546001600160a01b0319166001600160a01b039290921691909117905551910155604051908152a26102005180f35b015190508b80610b48565b90601f1983169184610200515281610200512092610200515b818110610c1c575093602098969360079693600193837f4c5d15f5779ae1ecd7d55bd3283d898e29c35743d172bd7b83a16e17bc0afe2a9d9b9810610c03575b505050811b019055610b5d565b015160001960f88460031b161c191690558b8080610bf6565b92936020600181928786015181550195019301610bb6565b83610200515260206102005120601f840160051c81019160208510610c78575b601f0160051c01905b818110610c6a5750610b01565b610200518155600101610c5d565b9091508190610c54565b015190508980610ac3565b6102008051869052518281209350601f198516905b818110610cde5750908460019594939210610cc5575b505050811b019055610ad8565b015160001960f88460031b161c19169055898080610cb8565b92936020600181928786015181550195019301610ca2565b90915083610200515260206102005120601f840160051c81019160208510610d45575b90601f859493920160051c01905b818110610d345750610aaa565b610200518155849350600101610d27565b9091508190610d19565b015190508a80610a6a565b6102008051869052518281209350601f198516905b818110610dab5750908460019594939210610d92575b505050811b019055610a7f565b015160001960f88460031b161c191690558a8080610d85565b92936020600181928786015181550195019301610d6f565b90915083610200515260206102005120601f840160051c81019160208510610e12575b90601f859493920160051c01905b818110610e015750610a51565b610200518155849350600101610df4565b9091508190610de6565b015190508b80610a11565b6102008051869052518281209350601f198516905b818110610e785750908460019594939210610e5f575b505050811b019055610a26565b015160001960f88460031b161c191690558b8080610e52565b92936020600181928786015181550195019301610e3c565b90915083610200515260206102005120601f840160051c81019160208510610edf575b90601f859493920160051c01905b818110610ece57506109f8565b610200518155849350600101610ec1565b9091508190610eb3565b015190508c806109b8565b6102008051869052518281209350601f198516905b818110610f455750908460019594939210610f2c575b505050811b0190556109cd565b015160001960f88460031b161c191690558c8080610f1f565b92936020600181928786015181550195019301610f09565b90915083610200515260206102005120601f840160051c81019160208510610fac575b90601f859493920160051c01905b818110610f9b575061099f565b610200518155849350600101610f8e565b9091508190610f80565b61020051610fc391612bed565b610200516101cb578c6108c9565b6040513d61020051823e3d90fd5b60405162461bcd60e51b815260206004820152600b60248201526a557365722065786973747360a81b6044820152606490fd5b346101cb57611038602061102536612c54565b8160405193828580945193849201612c92565b8101600581520301902061104b81612cef565b61108661105a60018401612cef565b9261106760028201612cef565b90611079600460038301549201612cef565b9160405195869586612db8565b0390f35b346101cb5760203660031901126101cb576001600160a01b036110ab612ba6565b16610200515260036020526020604061020051208054906110ce60018201612cef565b6111746110dd60028401612cef565b6111666110ec60038601612cef565b6111586110fb60048801612cef565b9161114a61110b60058a01612cef565b9561113c600760018060a01b0360068d0154169b0154996101006040519e8f9e8f90815201526101008d0190612d93565b908b820360408d0152612d93565b9089820360608b0152612d93565b908782036080890152612d93565b9085820360a0870152612d93565b9160c084015260e08301520390f35b346101cb57610200513660031901126101cb576020604051610200518152f35b346101cb5760403660031901126101cb576111bc612b90565b600435610200515261020051602052604061020051209060018060a01b0316600052602052602060ff604060002054166040519015158152f35b346101cb57610200513660031901126101cb576001546040516001600160a01b039091168152602090f35b346101cb5761122f36612c54565b604051818180935160208193019161124692612c92565b81016008815203602001902061125b81612cef565b61126760018301612cef565b9161127460028201612cef565b9061128160038201612cef565b61128d60048301612cef565b600583015461129e60068501612cef565b90600785015492600886016112b290612cef565b946112bf60098801612cef565b96600a016112cc90612cef565b976040519a8b9a6101608c526101608c016112e691612d93565b8b810360208d01526112f791612d93565b8a810360408c015261130891612d93565b89810360608b015261131991612d93565b88810360808a015261132a91612d93565b9060a088015286810360c088015261134191612d93565b9060e086015284810361010086015261135991612d93565b83810361012085015261136b91612d93565b82810361014084015261108691612d93565b346101cb576113da611393602061102536612c54565b810160068152030190206110866113a982612cef565b916113e86113c560026113be60018501612cef565b9301612cef565b91604051958695606087526060870190612d93565b908582036020870152612d93565b908382036040850152612d93565b346101cb5761140436612dea565b909193929461141497969761330e565b611432604051898982376020818b8101600481520301902054612cb5565b6114e8576114a5958895611468611474936114869761145f8c6040519b6114588d612bbc565b3691612c0e565b8a523691612c0e565b60208801523691612c0e565b60408501524260608501523691612c0e565b6080820152604051848482376020818681016004815203019020612e7e565b8160405192839283378101600081520390207f7b8e36ec94f5deb0831b2ed36c8d1db6f6766235c8b456d0db8b0895ea7e7a1d6102005161020051a26102005180f35b60405162461bcd60e51b815260206004820152600d60248201526c436f757273652065786973747360981b6044820152606490fd5b346101cb57610200513660031901126101cb5760206040517fa49807205ce4d355092ef5a8a18f56e8913cf4a201fbe287825b095693c217758152f35b346101cb57610200513660031901126101cb576115756134c8565b600180546001600160a01b0319811690915561020051906001600160a01b03167f8be0079c531659141344cd1fd0a4f28419497f9722a3daafe3b4186f6b6457e08280a36102005180f35b346101cb576115ce36612dea565b90919392946115de97969761330e565b6115fc604051898982376020818b8101600581520301902054612cb5565b61168457611641958895611468611474936116229761145f8c6040519b6114588d612bbc565b6080820152604051848482376020818681016005815203019020612e7e565b8160405192839283378101600081520390207ffc1b152f90d0c0e019fab86d0469a7d2e213971d52faf181ae5b65ed7653c5ed6102005161020051a26102005180f35b60405162461bcd60e51b815260206004820152600a6024820152694a6f622065786973747360b01b6044820152606490fd5b346101cb57610200513660031901126101cb576002546040516001600160a01b039091168152602090f35b346101cb576116f4602061102536612c54565b8101600481520301902061104b81612cef565b346101cb5761174c61171d602061102536612c54565b8101600781520301902061108661173860016113be84612cef565b604051938493604085526040850190612d93565b908382036020850152612d93565b346101cb5760403660031901126101cb57611773612b90565b336001600160a01b0382160361178f5761071590600435613446565b63334bd91960e11b6102005152600461020051fd5b346101cb5760403660031901126101cb576004356001600160401b0381116101cb576117d4903690600401612b5e565b6024356001600160401b0381116101cb576117f3903690600401612b5e565b6117fe93919361330e565b61181c60405184848237602081868101600781520301902054612cb5565b611aef576040519360408501918583106001600160401b038411176104eb5761184d9260405261029f368686612c0e565b926020810193845260405183838237602081858101600781520301902090518051906001600160401b0382116104eb576118878354612cb5565b601f8111611aa1575b506020906001601f841114611a3157918091600194936102005192611a26575b5050600019600383901b1c191690831b1781555b0192519283516001600160401b0381116104eb576118e28254612cb5565b601f81116119d8575b506020946001601f83111461196d579481929394956102005192611962575b50508160011b916000199060031b1c19161790555b8160405192839283378101600081520390207f4938f3d8c63bc08eb4624b1605499a3cc992aec6ed8a19dd5207689145cdf2726102005161020051a26102005180f35b01519050858061190a565b601f1982169583610200515280610200512091610200515b8881106119c0575083600195969798106119a7575b505050811b01905561191f565b015160001960f88460031b161c1916905585808061199a565b91926020600181928685015181550194019201611985565b82610200515260206102005120601f830160051c81019160208410611a1c575b601f0160051c01905b818110611a0e57506118eb565b610200518155600101611a01565b90915081906119f8565b0151905087806118b0565b90601f1983169184610200515281610200512092610200515b818110611a895750916001959492918387959310611a70575b505050811b0181556118c4565b015160001960f88460031b161c19169055878080611a63565b92936020600181928786015181550195019301611a4a565b83610200515260206102005120601f840160051c81019160208510611ae5575b601f0160051c01905b818110611ad75750611890565b610200518155600101611aca565b9091508190611ac1565b60405162461bcd60e51b815260206004820152600d60248201526c5363686f6f6c2065786973747360981b6044820152606490fd5b346101cb5760403660031901126101cb57610715600435611b43612b90565b90611b5f61070b82600052600060205260016040600020015490565b6133bb565b346101cb5760e03660031901126101cb576004356001600160401b0381116101cb57611b94903690600401612b5e565b61022052610240526024356001600160401b0381116101cb57611bbb903690600401612b5e565b906044356001600160401b0381116101cb57611bdb903690600401612b5e565b916064356001600160401b0381116101cb57611bfb903690600401612b5e565b9290936084356001600160401b0381116101cb57611c1d903690600401612b5e565b610140526101205260a4356001600160401b0381116101cb57611c44903690600401612b5e565b6101a0526101805260c4356001600160401b0381116101cb57611c6b903690600401612b5e565b6101e0526101c052611c9a60405161022051610240518237602081610220518101600481520301902054612cb5565b15612aa0576040516101605242602061016051015261022051610240516040610160510137611d5284826040896102205161016051018189848301610200518152370101610200518152818682370161020051815281888237016102005181526101405161012051823761014051016102005181526101a0516101805182376101a051016102005181526101e0516101c05182376101e05101610200518152610160519003601f198101610160515261016051612bed565b610160518051602090910120610100526002546001600160a01b0316803b156101cb5760405190637fe8888560e01b825261010051600483015281602481610200519361020051905af18015610fd157612a8d575b50604060e0819052805190611dbc9082612bed565b601081526f181899199a1a9b1b9c1cb0b131b232b360811b6020820152606060c081905260e0515160a0819052611df39190612bed565b60e05160a05152601f1960c0510136602060a0510137610200515b602081106129e557505060e0515160808190526001600160401b0361016082019081119111176104eb57611e74611e8393611e92976101606080510160e0515260a05160805152611e66366102205161024051612c0e565b602060805101523691612c0e565b60e05160805101523691612c0e565b60c05160805101523691612c0e565b60808051810191909152514260a09091015260e05151602090611eb58282612bed565b61020051815260c060805101526102005160e06080510152611ede366101405161012051612c0e565b6101006080510152611ef7366101a05161018051612c0e565b6101206080510152611f10366101e0516101c051612c0e565b610140608051015260e05151818160a05151611f328183602060a05101612c92565b81016008815203019020608051519081516001600160401b0381116104eb57611f5b8254612cb5565b601f811161299d575b5083926001601f83111461293457928192936102005192612929575b50508160011b916000199060031b1c19161781555b602060805101519081516001600160401b0381116104eb57611fba6001830154612cb5565b601f81116128de575b5083926001601f83111461286f57928192936102005192612864575b50508160011b916000199060031b1c19161760018201555b60e05160805101519081516001600160401b0381116104eb5761201d6002830154612cb5565b601f8111612819575b5083926001601f8311146127aa5792819293610200519261279f575b50508160011b916000199060031b1c19161760028201555b60c05160805101519081516001600160401b0381116104eb576120806003830154612cb5565b601f8111612754575b5083926001601f8311146126e5579281929361020051926126da575b50508160011b916000199060031b1c19161760038201555b6080805101519081516001600160401b0381116104eb576120e16004830154612cb5565b601f811161268f575b5083926001601f83111461262057928192936102005192612615575b50508160011b916000199060031b1c19161760048201555b60a060805101516005820155600681019060c060805101519182516001600160401b0381116104eb576121518254612cb5565b601f81116125c9575b5084936001601f83111461255f5793819293946102005192612554575b50508160011b916000199060031b1c19161790555b60e060805101516007820155600881019061010060805101519182516001600160401b0381116104eb576121c08254612cb5565b601f8111612508575b5084936001601f83111461249e5793819293946102005192612493575b50508160011b916000199060031b1c19161790555b600981019061012060805101519182516001600160401b0381116104eb576122238254612cb5565b601f8111612447575b5084936001601f8311146123d957600a94829161020051926123ce575b50508160011b916000199060031b1c19161790555b016101406080510151918251906001600160401b0382116104eb576122838354612cb5565b601f8111612382575b50806001601f8411146123165750819293610200519261230b575b50508160011b916000199060031b1c19161790555b60e051518060a051516122d58183602060a05101612c92565b81010390207f89fc2f20bb573efc629370d8a186b84a013491b436b2e33bdf0873e9838704b36102005161020051a26102005180f35b0151905083806122a7565b90601f198316948461020051528261020051209261020051905b87821061236a575050836001959610612351575b505050811b0190556122bc565b015160001960f88460031b161c19169055838080612344565b80600185968294968601518155019501930190612330565b836102005152816102005120601f840160051c8101918385106123c4575b601f0160051c01905b8181106123b6575061228c565b6102005181556001016123a9565b90915081906123a0565b015190508680612249565b601f1982169483610200515286610200512091610200515b8888821061243157505090839291600194600a9810612418575b505050811b01905561225e565b015160001960f88460031b161c1916905586808061240b565b60018495829395850151815501940192016123f1565b826102005152856102005120601f830160051c810191878410612489575b601f0160051c01905b81811061247b575061222c565b61020051815560010161246e565b9091508190612465565b0151905085806121e6565b601f1982169483610200515286610200512091610200515b888882106124f2575050836001959697106124d9575b505050811b0190556121fb565b015160001960f88460031b161c191690558580806124cc565b60018495829395850151815501940192016124b6565b826102005152856102005120601f830160051c81019187841061254a575b601f0160051c01905b81811061253c57506121c9565b61020051815560010161252f565b9091508190612526565b015190508580612177565b601f1982169483610200515286610200512091610200515b888882106125b35750508360019596971061259a575b505050811b01905561218c565b015160001960f88460031b161c1916905585808061258d565b6001849582939585015181550194019201612577565b826102005152856102005120601f830160051c81019187841061260b575b601f0160051c01905b8181106125fd575061215a565b6102005181556001016125f0565b90915081906125e7565b015190508480612106565b601f1982169360048401610200515285610200512091610200515b87878210612679575050836001959610612660575b505050811b01600482015561211e565b015160001960f88460031b161c19169055848080612650565b600184958293958501518155019401920161263b565b600483016102005152846102005120601f830160051c81018684106126d3575b601f830160051c820181106126c55750506120ea565b6102005181556001016126af565b50806126af565b0151905084806120a5565b601f1982169360038401610200515285610200512091610200515b8787821061273e575050836001959610612725575b505050811b0160038201556120bd565b015160001960f88460031b161c19169055848080612715565b6001849582939585015181550194019201612700565b600383016102005152846102005120601f830160051c8101868410612798575b601f830160051c8201811061278a575050612089565b610200518155600101612774565b5080612774565b015190508480612042565b601f1982169360028401610200515285610200512091610200515b878782106128035750508360019596106127ea575b505050811b01600282015561205a565b015160001960f88460031b161c191690558480806127da565b60018495829395850151815501940192016127c5565b600283016102005152846102005120601f830160051c810186841061285d575b601f830160051c8201811061284f575050612026565b610200518155600101612839565b5080612839565b015190508480611fdf565b601f1982169360018401610200515285610200512091610200515b878782106128c85750508360019596106128af575b505050811b016001820155611ff7565b015160001960f88460031b161c1916905584808061289f565b600184958293958501518155019401920161288a565b600183016102005152846102005120601f830160051c8101868410612922575b601f830160051c82018110612914575050611fc3565b6102005181556001016128fe565b50806128fe565b015190508480611f80565b601f1982169383610200515285610200512091610200515b8787821061298757505083600195961061296e575b505050811b018155611f95565b015160001960f88460031b161c19169055848080612961565b600184958293958501518155019401920161294c565b826102005152846102005120601f830160051c81018684106129de575b601f830160051c820181106129d0575050611f64565b6102005181556001016129ba565b50806129ba565b610100516001600160f81b031990612a0590831a60041c600f16846132e7565b5116818060011b0460021482151715612a7357610200511a612a2c8260011b60a0516132e7565b5360ff60f81b612a44600f61010051841a16846132e7565b511690600181811b90810110612a7357600191610200511a612a6c8383811b0160a0516132e7565b5301611e0e565b634e487b7160e01b61020051526011600452602461020051fd5b61020051612a9a91612bed565b86611da7565b60405162461bcd60e51b815260206004820152600e60248201526d436f75727365206d697373696e6760901b6044820152606490fd5b346101cb5760203660031901126101cb576020612b03600435600052600060205260016040600020015490565b604051908152f35b346101cb5760203660031901126101cb576004359063ffffffff60e01b82168092036101cb57602091637965db0b60e01b8114908115612b4d575b5015158152f35b6301ffc9a760e01b14905083612b46565b9181601f84011215612b8b578235916001600160401b038311612b8b5760208381860195010111612b8b57565b600080fd5b602435906001600160a01b0382168203612b8b57565b600435906001600160a01b0382168203612b8b57565b60a081019081106001600160401b03821117612bd757604052565b634e487b7160e01b600052604160045260246000fd5b90601f801991011681019081106001600160401b03821117612bd757604052565b9291926001600160401b038211612bd75760405191612c37601f8201601f191660200184612bed565b829481845281830111612b8b578281602093846000960137010152565b6020600319820112612b8b57600435906001600160401b038211612b8b5780602383011215612b8b57816024612c8f93600401359101612c0e565b90565b60005b838110612ca55750506000910152565b8181015183820152602001612c95565b90600182811c92168015612ce5575b6020831014612ccf57565b634e487b7160e01b600052602260045260246000fd5b91607f1691612cc4565b9060405191826000825492612d0384612cb5565b8084529360018116908115612d715750600114612d2a575b50612d2892500383612bed565b565b90506000929192526020600020906000915b818310612d55575050906020612d289282010138612d1b565b6020919350806001915483858901015201910190918492612d3c565b905060209250612d2894915060ff191682840152151560051b82010138612d1b565b90602091612dac81518092818552858086019101612c92565b601f01601f1916010190565b91926113e8612c8f96946113da612dd79460a0875260a0870190612d93565b9260608201526080818403910152612d93565b6080600319820112612b8b576004356001600160401b038111612b8b5781612e1491600401612b5e565b929092916024356001600160401b038111612b8b5781612e3691600401612b5e565b929092916044356001600160401b038111612b8b5781612e5891600401612b5e565b92909291606435906001600160401b038211612b8b57612e7a91600401612b5e565b9091565b9181519283516001600160401b038111612bd757612e9c8254612cb5565b601f811161329f575b50602094601f821160011461323a5794819293949560009261322f575b50508160011b916000199060031b1c19161781555b6001810160208401518051906001600160401b038211612bd7578190612efd8454612cb5565b601f81116131dc575b50602090601f83116001146131775760009261316c575b50508160011b916000199060031b1c19161790555b6002810160408401518051906001600160401b038211612bd757612f568354612cb5565b601f8111613124575b50602090601f83116001146130b757918060049492608096946000926130ac575b50508160011b916000199060031b1c19161790555b60608501516003820155019201519182516001600160401b038111612bd757612fbe8254612cb5565b601f8111613064575b506020601f82116001146130025781929394600092612ff7575b50508160011b916000199060031b1c1916179055565b015190503880612fe1565b601f1982169083600052806000209160005b81811061304c57509583600195969710613033575b505050811b019055565b015160001960f88460031b161c19169055388080613029565b9192602060018192868b015181550194019201613014565b826000526020600020601f830160051c810191602084106130a2575b601f0160051c01905b8181106130965750612fc7565b60008155600101613089565b9091508190613080565b015190503880612f80565b90601f1983169184600052816000209260005b81811061310c57509260019285926080989660049896106130f3575b505050811b019055612f95565b015160001960f88460031b161c191690553880806130e6565b929360206001819287860151815501950193016130ca565b836000526020600020601f840160051c81019160208510613162575b601f0160051c01905b8181106131565750612f5f565b60008155600101613149565b9091508190613140565b015190503880612f1d565b60008581528281209350601f198516905b8181106131c457509084600195949392106131ab575b505050811b019055612f32565b015160001960f88460031b161c1916905538808061319e565b92936020600181928786015181550195019301613188565b909150836000526020600020601f840160051c81019160208510613225575b90601f859493920160051c01905b8181106132165750612f06565b60008155849350600101613209565b90915081906131fb565b015190503880612ec2565b601f1982169583600052806000209160005b8881106132875750836001959697981061326e575b505050811b018155612ed7565b015160001960f88460031b161c19169055388080613261565b9192602060018192868501518155019401920161324c565b826000526020600020601f830160051c810191602084106132dd575b601f0160051c01905b8181106132d15750612ea5565b600081556001016132c4565b90915081906132bb565b9081518110156132f8570160200190565b634e487b7160e01b600052603260045260246000fd5b3360009081527f7d7ffb7a348e1c6a02869081a26547b49160dd3df72d1d75a570eb9b698292ec602052604090205460ff161561334757565b63e2517d3f60e01b600052336004527fa49807205ce4d355092ef5a8a18f56e8913cf4a201fbe287825b095693c2177560245260446000fd5b60008181526020818152604080832033845290915290205460ff16156133a35750565b63e2517d3f60e01b6000523360045260245260446000fd5b6000818152602081815260408083206001600160a01b038616845290915290205460ff1661343f576000818152602081815260408083206001600160a01b0395909516808452949091528120805460ff19166001179055339291907f2f8788117e7eff1d82e926ec794901d17c78024a50270940304540a733656f0d9080a4600190565b5050600090565b6000818152602081815260408083206001600160a01b038616845290915290205460ff161561343f576000818152602081815260408083206001600160a01b0395909516808452949091528120805460ff19169055339291907ff6391f5c32d9c69d2a47ea670b442974b53935d1edc7fd64eb21e047a839171b9080a4600190565b6001546001600160a01b031633036134dc57565b63118cdaa760e01b6000523360045260246000fdfea26469706673582212202f690fea9054602ccdd17f954981ab78371a1d70631aa8313604fc2e6b9d0ffa64736f6c634300081c00332f8788117e7eff1d82e926ec794901d17c78024a50270940304540a733656f0d7d7ffb7a348e1c6a02869081a26547b49160dd3df72d1d75a570eb9b698292ecad3228b676f7d3cd4284a5443f17f1962b36e491b30a40b2405849e597ba5fb5",
  "linkReferences": {},
  "deployedLinkReferences": {}
}